:020000040800F2
:10000000A8060020F5200008B51F0008B71F00084B
:1000100000000000000000000000000000000000E0
:10002000000000000000000000000000BB1F0008EE
:100030000000000000000000BD1F0008BF1F0008F6
:100040006B17000800000000C71E0008B11F000861
:10005000A3200008AF200008192100081B21000878
:10006000000000001D2100081F21000821210008B8
:100070002321000825210008272100080000000096
:10008000292100082B210008000000002D21000874
:100090002F210008312100083321000835210008F4
:1000A00037210008392100083B210008C71F00083C
:1000B000D11F000810B50400002C01D1012035E04B
:1000C000A0690028FFD1606F002805D100207021B1
:1000D0006054200000F01AFD24206067206800684A
:1000E0000121884321680860200000F0C5F901283B
:1000F00001D101201AE0606A002802D0200000F03F
:10010000ADFA206840680A490140206841602068D3
:100110008068082188432168886020680068012180
:10012000014320680160200000F012FB10BD0000B8
:10013000FFF7FFFF10B50400002C01D101201DE0E6
:1001400024206067206800680121884321680860D6
:100150000020216808600020216848600020216894
:100160008860200000F04BFD0020E0670020606701
:100170000020A067002070216054002010BD10B541
:100180000300586F202840D1002903D0100080B20E
:10019000002801D1012039E0986880246401A04240
:1001A00007D11869002804D10800C00701D5012033
:1001B0002CE07020185C012801D1022026E00120EB
:1001C00070241855D96450201A5252201A52002017
:1001D00058660020D86721205867986880246401F9
:1001E000A04205D11869002802D14248586601E0B2
:1001F000414858660020702418551868006880240B
:10020000044318680460002000E0022010BD10B50F
:100210000300986F202868D1002903D0100080B215
:10022000002801D1012061E0986880246401A04287
:1002300007D11869002804D10800C00701D50120A2
:1002400054E07020185C012801D102204EE001200A
:1002500070241855596558201A525A201A520020F5
:100260001866986880246401A0420AD118690028A1
:1002700003D11F485C24185314E0FF205C2418535A
:1002800010E0986800280AD11869002803D1FF20DF
:100290005C24185306E07F205C24185302E0002001
:1002A0005C2418530020D86722209867186880685B
:1002B0000124044318688460986880246401A04283
:1002C00005D11869002802D10C48186601E00C48D5
:1002D000186600207024185518680068902464007F
:1002E000044318680460002000E0022010BD0000F4
:1002F000FF0100001F090008DB080008FD090008D5
:1003000089090008FEB504002068C56920680668F0
:1003100020688768564828400090009800280AD135
:10032000A80608D5B00606D5206E002802D0200009
:10033000216E88479AE00098002800D183E0F807F2
:1003400004D490204000304000287CD0E80708D535
:10035000F00506D5012021680862E06F0121014304
:10036000E167A80708D5F80706D5022021680862CA
:10037000E06F04210143E167680708D5F80706D557
:10038000042021680862E06F02210143E167280729
:100390000AD5B00601D4F80706D5082021680862FE
:1003A000E06F08210143E167280509D5700107D5F1
:1003B0008020000121680862E06F20210143E1678D
:1003C000E06F00283ED0A80607D5B00605D5206E00
:1003D000002802D02000216E8847E06F019020683D
:1003E0008068400604D4019828210140002924D0C7
:1003F000200000F03BFA20688068400619D520688C
:1004000080684021884321688860E06E00280CD015
:100410001848E16E4863E06E00F02EFC002811D011
:10042000E06EE16E496B88470CE0200000F074FD3F
:1004300008E0200000F070FD04E0200000F06CFDFA
:100440000020E06712E0280608D5300606D5606E69
:10045000002802D02000616E884707E0680605D5B5
:10046000700603D5200000F07FFAFFE7F7BD00001B
:100470000F080000C1080008FEB50500002600278F
:10048000A868296901436A690A43E8691043296831
:100490000968AA4A0A40024329680A60296849682B
:1004A000A74A0A40E96811432A685160A9692A6A83
:1004B0000A43029229688968A24A0A4002991143B4
:1004C0002A6891602968A04A914215D19F48006826
:1004D0008007800F002805D0022809D006D3032802
:1004E00002D007E000240EE002240CE004240AE01D
:1004F000082408E0102406E02868AE49884201D1AB
:10050000002400E01024E86980210902884256D1C5
:100510002000C0B2002806D0022813D004281BD027
:10052000082828D032E001F0A7F8009000980221B6
:100530004843696849084018696801F0BFF880B20B
:10054000060025E0686840089B494018696801F08A
:10055000B5F880B206001BE001F04EF8009000985C
:1005600002214843696849084018696801F0A6F803
:1005700080B206000CE068684008802149024018FB
:10058000696801F09BF880B2060001E001200700D5
:10059000102E11D38020400286420DD23100B24885
:1005A0000840694672085207520F02438A80684623
:1005B00080882968C86049E00120070046E02000E3
:1005C000C0B2002806D0022811D0042819D008286B
:1005D00024D02EE001F050F8009000986968490896
:1005E0004018696801F06AF880B2060023E0686884
:1005F0004008A7494018696801F060F880B2060019
:1006000019E000F0F9FF0090009869684908401867
:10061000696801F053F880B206000CE06868400891
:10062000802109024018696801F048F880B206008C
:1006300001E001200700102E06D3802040028642F0
:1006400002D22868C66001E0012007000020286669
:10065000002068663800C0B2FEBD000000B524214D
:10066000415CC90707D5016849688A4A0A40816A1E
:100670001143026851602421415C890707D5016854
:100680004968854A0A40C16A1143026851602421C1
:10069000415C490707D501684968804A0A40016BF7
:1006A0001143026851602421415C090707D50168A4
:1006B00049687B4A0A40416B11430268516024211A
:1006C000415CC90607D501688968764A0A40816B92
:1006D0001143026891602421415C890607D50168B5
:1006E0008968714A0A40C16B1143026891602421F4
:1006F000415C490614D5016849686C4A0A40016C9E
:10070000114302685160016C80225203914207D16B
:1007100001684968664A0A40416C114302685160A9
:100720002421415C090607D501684968614A0A40ED
:10073000816C11430268516000BD0000F369FFFF46
:10074000FFCFFFFFFFF4FFFF0038014030100240F1
:1007500038B504000020E06701F008F805002068C3
:10076000006800070CD5544800902B00002280211F
:100770008903200000F022F8002801D0032018E0AF
:100780002068006840070CD54B4800902B000022E1
:100790008021C903200000F011F8002801D00320B7
:1007A00007E0202060672020A067002070216054AF
:1007B000002032BD004400400024F400F4B50400E1
:1007C0000D001F00069E2068C0692840A84201D184
:1007D000012000E0002069460978884242D10020CB
:1007E000C0438642EFD000F0C1FFC01B864201D358
:1007F000002E14D120680068304901402068016053
:100800002068806801218843216888602020606713
:100810002020A067002070216054032023E020687E
:1008200000684007CFD52068C0690005CBD580207F
:1008300000012168086220680068204901402068A2
:100840000160206880680121884321688860202039
:1008500060672020A0672020E0670020702160549E
:10086000032000E00020F2BDF0FF000001680968ED
:10087000614A0A4001680A6001688968012291435F
:1008800002689160202181670021016670470000A5
:1008900000127A00FFFFFDFFFFFFFEFFFFFFFBFFDF
:1008A000FF7FFFFFFFEFFFFFFFDFFFFFFFFFEFFF18
:1008B000FFFF9FFFFFFFF7FFFFFFFF015FFEFFFF4F
:1008C00038B50400656A00205A2168520020522180
:1008D0006852280000F020FB31BD00B5416F21298E
:1008E0001CD15221415A00290CD10168096880228B
:1008F0009143026811600168096840220A43016857
:100900000A600BE0C16C097802681185C16C491C52
:10091000C1645221415A491E5222815200BD00B584
:10092000426F212A1FD15222825A002A0CD102681A
:10093000126880239A4303681A6002681268402391
:100940001343026813600EE0C26C11000A88D205DE
:10095000D20D03681A85C26C921CC2645222825A5C
:10096000521E5223C25200BD10B504002068006818
:10097000402188432168086020206067002060666D
:10098000200000F08FFA10BD70B505005C202E5AD3
:10099000A86F222827D12868808C0400200031000D
:1009A0000140686D0170686D401C68655A20285AC6
:1009B000401E5A2168525A20285A002819D1286806
:1009C00000680D490140286801602868806801219D
:1009D0008843296888602020A867002028662800AE
:1009E00000F07DFA05E02868806908210143286845
:1009F000816170BD00000000DFFEFFFFF8B505005B
:100A00005C202E5AA86F222827D12868808C0400E9
:100A1000686D0700300020403880686D801C686574
:100A20005A20285A401E5A2168525A20285A002813
:100A300019D1286800680C490140286801602868BD
:100A4000806801218843296888602020A8670020E9
:100A50002866280000F043FA05E02868806908212C
:100A6000014328688161F1BDDFFEFFFF80B5784852
:100A700078490860E12040027649486000207549C5
:100A8000886000207349C8600020724908610C200A
:100A90007049486100206F49886100206D49C86134
:100AA00000206C49086200206A4948626948FFF7E3
:100AB00001FB002801D000F071FA01BD80B5664845
:100AC00066490860E12040026449486000206349AB
:100AD000886000206149C8600020604908610C20DE
:100AE0005E49486100205D49886100205B49C8611A
:100AF00000205A4908620020584948625748FFF7C9
:100B0000D9FA002801D000F049FA01BD10B586B02D
:100B1000040001A8142100F057FE20684C498842C7
:100B200034D14F4800688021C90101434C4801601D
:100B30004B4800688021C90108400090009849484E
:100B400000688021890201434648016045480068E9
:100B500080218902084000900098C020C0000190C8
:100B600002200290012003900320049001200590B0
:100B700001A99020C00500F029FE002201211B20C0
:100B800001F042F81B2001F049F836E020683249B4
:100B9000884232D1344800688021890201433248BA
:100BA0000160314800688021890208400090009867
:100BB0002C4800688021890201432A4801602948A5
:100BC0000068802189020840009000982748019021
:100BD0000220029001200390032004900120059040
:100BE00001A99020C00500F0F1FD002201211C2088
:100BF00001F00AF81C2001F011F806B010BD10B584
:100C000004002068124988420FD11548006818492D
:100C1000014013480160C021C9009020C00500F0C8
:100C2000C3FE1B2001F001F811E020680A49884248
:100C30000DD10D4800680F4901400B4801600B4978
:100C40009020C00500F0B0FE1C2000F0EEFF10BDAB
:100C5000003801406800002000440040E800002007
:100C600018100240141002401C10024004800000C2
:100C7000FFBFFFFFFFFFFDFF38B504000025212067
:100C8000205C022804D00420A063012005001CE0A1
:100C9000206800680E218843216808602068006889
:100CA00001218843216808600120216C8840E16BA4
:100CB0004860012021216054002020216054606B95
:100CC000002802D02000616B88472800C0B232BDE6
:100CD00070B500F0C5FF00F0A4F800F0D1FFFFF7F9
:100CE000C5FEFFF7EBFE642000F0DEFF5A229B49B1
:100CF0009B48FFF78CFA002801D000F04FF95A22E8
:100D000098499948FFF73BFA002801D000F046F9CE
:100D100096480068012813DB0020944908605A2592
:100D20000024934E22002900300000F025FD5A22B5
:100D30008F498D48FFF76BFA002801D000F02EF99B
:100D40008C480068012813DB00208A4908605A2576
:100D50000024824E22002900300000F00DFD5A22AE
:100D60007E497F48FFF753FA002801D000F016F9BA
:100D700081480068012813DB00207F4908605A255C
:100D80007B4C784E2A002100300000F0A3FF5A224D
:100D900074497548FFF7F3F9002801D000F0FEF818
:100DA00076480068012813DB0020744908605A2542
:100DB0006A4C734E2A002100300000F08BFF5A224B
:100DC0006F496748FFF7DBF9002801D000F0E6F82B
:100DD0006C480068012803DA6B480068012897DB3B
:100DE000002068490860002067490860FFF73EFE60
:100DF000FFF764FE012000F057FF5A225749584878
:100E0000FFF705FA002801D000F0C8F85A2255492A
:100E10005548FFF7B4F9002800D179E700F0BEF893
:100E200076E780B594B008A8302100F0CDFC684684
:100E3000102100F0C9FC04A8102100F0C5FC02201C
:100E4000089001200B9010200C90022010900020A0
:100E50001190A020800312900020139008A800F0A9
:100E60009FF8002801D000F099F807200090022098
:100E7000019000200290002003900121684600F0BC
:100E800017FB002801D000F089F801200490002011
:100E9000069004A800F04CFF002801D000F07EF876
:100EA00015B000BD00B5304988420AD12F49096804
:100EB000491C2E4A116035490968491C334A1160A2
:100EC0000CE02749884209D12A490968491C294A66
:100ED00011602F490968491C2D4A116000BD00B5F9
:100EE000214988420AD124490968491C224A1160D3
:100EF00028490968491C274A11600CE018498842B2
:100F000009D11E490968491C1C4A11602249096817
:100F1000491C214A116000BD10B5040012488442EA
:100F200005D118480068401C1649086007E00C48C5
:100F3000844204D114480068401C134908600A48E0
:100F4000FFF7F8F8002801D000F028F80448FFF770
:100F5000F1F8002801D000F021F810BDC4010020F4
:100F6000E800002000000020680000207C02002033
:100F700068010020840200208002002088020020F6
:100F8000200200209C020020A00200208C020020F1
:100F900094020020900200209802002000B5FEE795
:100FA000FEB50400002C01D1012073E22078C007B7
:100FB00075D5AD4800680C21014004290ED0AA481F
:100FC00000680C210140082911D1A7480068802140
:100FD0004902084080214902884208D1BA48006885
:100FE00080035CD56068002859D1012052E2606816
:100FF000012807D1B4480068802149020143B24862
:1010000001602DE0606800280CD1AF480068AF494E
:101010000140AD480160AC480068AD490140AA48B4
:1010200001601DE0606805280ED1A7480068802196
:10103000C9020143A4480160A34800688021490215
:101040000143A14801600BE09F4800689F490140AF
:101050009D4801609C4800689D4901409A48016094
:10106000606800280DD000F081FB050096480068FC
:10107000800314D400F07AFB401B6528F6D30320CC
:1010800008E200F073FB05008F480068800306D576
:1010900000F06CFB401B6528F6D30320FAE12078B2
:1010A000800757D5704800680C210140002909D0FD
:1010B0006D4800680C210140082916D16A48006873
:1010C000C00312D480480068800704D5E068012876
:1010D00001D00120DEE17C480068F82188432169C5
:1010E000C90001437848016034E0E06800281DD061
:1010F00075480068012101437348016000F036FB28
:10110000050071480068800706D400F02FFB401BE3
:101110000328F6D30320BDE16B480068F82188431B
:101120002169C90001436848016013E0664800680E
:10113000012188436449086000F018FB05006248FB
:101140000068800706D500F011FB401B0328F6D38A
:1011500003209FE1207800072AD5E069002813D0FA
:10116000BB48006801210143B948016000F0FEFA64
:101170000500B748006880071AD400F0F7FA401B52
:101180000328F6D3032085E1B14800680121884394
:10119000AF49086000F0EAFA0500AD480068800732
:1011A00006D500F0E3FA401B0328F6D3032071E1D3
:1011B0002078400700D497E00026B7480068C000B8
:1011C0000FD4B5480068802149050143B248016049
:1011D000B14800688021490508400090009801202E
:1011E0000600AE480068C00514D4AC4800688021F1
:1011F00049000143A948016000F0B8FA0500A7487A
:101200000068C00506D400F0B1FA401B6528F6D38B
:1012100003203FE1A068012806D1A1480068012110
:1012200001439F4801602DE0A06800280CD19C4834
:101230000068012188439A490860994800680421A0
:101240008843974908601DE0A06805280ED194489E
:10125000006804210143924801609148006801211F
:1012600001438F4801600DE0041002408C48006883
:10127000012188438A49086089480068042188431D
:1012800087490860A06800280ED000F06FFA0500BA
:101290008348006880071DD400F068FA401B81492C
:1012A0008842F5D30320F5E000F060FA05007C48A1
:1012B000006880070ED500F059FA401B7949884232
:1012C000F5D30320E6E000BF00100240FFFFFEFF61
:1012D000FFFFFBFF3000C0B2012805D16E48006857
:1012E000714901406C4801602078C00655D560699D
:1012F000012823D16D480068042101436B48016037
:101300006A480068012101436848016000F02EFA34
:10131000050066480068800706D400F027FA401BE5
:101320000328F6D30320B5E060480068F82188431D
:10133000A169C90001435D4801602EE06069042194
:10134000C94388420FD1594800680421884357494E
:10135000086056480068F8218843A169C900014324
:101360005248016019E051480068042101434F4888
:1013700001604E480068012188434C49086000F034
:10138000F5F9050049480068800706D500F0EEF938
:10139000401B0328F6D303207CE0206A002878D085
:1013A000914800680C210140082953D0206A022886
:1013B0003AD18E4800688E4901408C48016000F0A7
:1013C000D5F9060089480068800106D500F0CEF9FD
:1013D000801B0328F6D303205CE0A64800680F2199
:1013E0008843E16A0143A34801607F48006881495E
:1013F0000140A06A0843616A01437B4801607B4861
:1014000000688021490401437848016000F0AEF98A
:1014100005007648006880013BD400F0A7F9401B26
:101420000328F6D3032035E0704800687049014076
:101430006E48016000F09AF905006C480068800170
:1014400027D500F093F9401B0328F6D3032021E0B1
:1014500024100240206A012801D101201AE06248CC
:1014600000680700834800680190802040023840EF
:10147000616A88420BD101980007000FE16A884237
:1014800005D1F02080033840A16A884201D00120B4
:1014900000E00020FEBD00001C1002400070004073
:1014A0002010024089130000FFFFFFEF34100240BC
:1014B00070B505000C00002D01D1012093E07448A7
:1014C00000680100C907C90FA1420FD27048006827
:1014D0000121884320436E4908606D48006801007F
:1014E000C907C90FA14201D001207CE028788007FC
:1014F00011D52878400706D53B480068E021C9008F
:1015000001433948016038480068F0218843A968E0
:101510000143354801602878C00732D56868012842
:1015200005D132480068800310D401205BE0686870
:10153000022805D12D480068800107D4012052E01F
:101540002A480068800701D401204CE02648006842
:1015500003218843696801432348016000F006F9CC
:101560000600214800680C21014068688000814223
:1015700007D000F0FBF8801B46498842F1D30320D6
:1015800031E0434800680100C907C90F8C420FD2FF
:101590003F4800680121884320433D4908603C489A
:1015A00000680100C907C90FA14201D001201AE05B
:1015B0002878400707D50C48006837490140E8689B
:1015C00008430949086000F017F83449064A1268D0
:1015D00012091207120F895CC840314908600020C7
:1015E00000F048FC002070BD0410024000100240D2
:1015F000FFFFFFFEFFFFC2FFF0B589B005A82A4933
:10160000102200F07BFB01A82849102200F076FB95
:1016100000200024002500260021009121490F68A8
:101620000C213940042902D0082902D01CE02048AE
:101630001BE005A8B90C0907090F405C060001A8CA
:101640000C4909680907090F405C0400F80306D536
:101650001748210000F032F87043050002E01548F9
:1016600070430500280000E0114809B0F0BD0C48A7
:10167000006870472C10024080B5FFF7F8FF0E4954
:10168000084A1268120A5207520F895CC84002BD0C
:101690000020024089130000FFF8FFFFE42000084B
:1016A0006000002004100240C4200008D42000087C
:1016B00000127A0000093D00102100080022030AF0
:1016C0008B420BD203098B4219D243088B422ED294
:1016D000411A00D20146524110467047FF220902CA
:1016E0003FD012068B4205D3121209028B4201D35E
:1016F0001212090203098B4219D300E0090AC30937
:101700008B4201D3CB01C01A524183098B4201D3D2
:101710008B01C01A524143098B4201D34B01C01ABD
:10172000524103098B4201D30B01C01A5241C30835
:101730008B4201D3CB00C01A524183088B4201D3A4
:101740008B00C01A524143088B4201D34B00C01A90
:101750005241884200D3401A5241CFD2014610462E
:10176000704708B500F0AEFB08BDFEE70148006811
:10177000704700BFA40200201206130A1A43130C7C
:101780001A4300BF094205D0830705D00270401CF0
:10179000491EF9D170470000130030B41400150041
:1017A000103902D310393CC0FCD2490700D30CC019
:1017B00000D504C0890002D30280801C002900D516
:1017C000027030BC704700000022E5E7F8B5002445
:1017D0000D68E540002D00D1E5E00D680126A6402A
:1017E0002E403200002A00D1DBE04D68022D02D0ED
:1017F0004D68122D1ED1E5080426754345192E6A41
:101800000F27BC4625006D076D0F04277D436746F3
:10181000AF40BE430D69AC4625006F077F0F04251E
:101820006F436546BD4035432B00E50804267543EC
:1018300045192B6207680325AC46260002256E4336
:101840006546B540AF430D79AD07AD0FAC462600F8
:1018500002256E436546B5403D4305604E68012E46
:1018600008D04B68022B05D04B68112B02D04B6877
:10187000122B1FD1876803239C46260002235E4358
:101880006346B3409F43CB689C46260002235E43D9
:101890006346B3403B43836047680126A640B74395
:1018A000BC464F683E00F606F60FA64067463E432C
:1018B00035004560C76803239C46260002235E432B
:1018C0006346B3409F438B689C46260002235E43D9
:1018D0006346B3403B43C3604E68F60061D5834D19
:1018E0002D6801262E43814D2E60804D2D682E00DF
:1018F000F607F60F0096009D7D4DA60804277E434F
:10190000AE590F27BC462500AD07AD0F04277D4318
:101910006746AF40BE439025ED05A84201D10023A4
:101920000FE0744B984201D101230AE0724B9842B8
:1019300001D1022305E0714B984201D1032300E05D
:1019400005232500AD07AD0F04277D43AB4033438E
:10195000674DA60804277E43AB51694D2D6895431A
:101960004E68F60300D51543654B1D60654B1B683B
:1019700093434E68B60300D51343624D2B60624D0E
:101980002D6895434E68F60200D515435E4B1D60E9
:101990005E4B1B6893434E68B60200D513435B4D04
:1019A0002B60641C14E7F1BDF8B500240D00E54080
:1019B000002D00D198E00125A5400D402A00002A05
:1019C00000D18FE04A4DA60804277E43AE590F2769
:1019D000BC462500AD07AD0F04277D436746AF40E9
:1019E00037403B009025ED05A84201D100250FE0CE
:1019F000404DA84201D101250AE03F4DA84201D146
:101A0000022505E03D4DA84201D1032500E0052552
:101A10002600B607B60F04277E43B540AB4228D157
:101A2000374D2D689543364E3560364D2D689543BC
:101A3000344E3560344D2D689543334E3560334D0B
:101A40002D689543314E35600F252600B607B60F39
:101A500004277E43B5402B00254DA60804277E436E
:101A6000AE599E43224FBC46A50804277D436746D6
:101A70007E5106680327BC46250002277D43674642
:101A8000AF40BE430660E50804267543451900953E
:101A9000E5080426754345192F6A0F25AC46250035
:101AA0006E07760F04256E436546B540AF43009D33
:101AB0002F6286680327BC46250002277D436746C0
:101AC000AF40BE43866045680126A640B5434560E9
:101AD000C6680327BC46250002277D436746AF4002
:101AE000BE43C660641C61E7F1BD000018100240EF
:101AF000080001400004004800080048000C0048AD
:101B00000004014004040140080401400C040140A9
:101B100000B5010049B2002905D40121C206D20E48
:101B20009140484A116000BD00B5010049B200294A
:101B300009D40121C206D20E9140434A1160BFF37D
:101B40004F8FBFF36F8F00BDF0B5020052B2002A75
:101B50001DD43E4A03005BB29B0804246343D25861
:101B6000FF238407A40F08256C43A3409A438B01ED
:101B7000DBB28407A40F08256C43A3401343334A08
:101B8000040064B2A40804256C43135122E0304AD7
:101B900003005BB21B071B0F083B9D0804235D433A
:101BA0002B4B040064B22407240F083CA40804262D
:101BB00074431B59FF248607B60F08277E43B440A1
:101BC000A3438C01E4B28607B60F08277E43B440D6
:101BD0001C435451F0BD10B50400601E802149041F
:101BE000884201D301200EE0601E1A4908600321DB
:101BF0000020C043FFF7A8FF002017490860072016
:101C000016490860002010BD70B505000C001600D4
:101C10002100280040B2FFF797FF70BD10B5040007
:101C2000200040B2FFF774FF10BD10B50400200083
:101C300040B2FFF779FF10BD10B504002000FFF798
:101C4000CAFF10BD00E100E080E100E000E400E038
:101C50001CED00E014E000E018E000E010E000E01F
:101C600080B5064800681021014304480160002047
:101C700000F000F900F028F9002002BD0020024029
:101C800081B008480068802189020143054801604D
:101C9000044800688021890208400090009801B043
:101CA000704700BF1410024070B50400FFF75EFDDE
:101CB000050026000020C043864202D00448007878
:101CC0003618FFF753FD401BB042FAD370BD00BF7A
:101CD00064000020124207D08B0706D00B78491C05
:101CE0000370401C521EF7D87047830706D00B784C
:101CF000491C0370401C521EF9D1704770B4103A51
:101D000003D378C9103A78C0FBD2530701D318C95E
:101D100018C001D508C908C0D20704D30B880380B6
:101D2000891C801C002A01D50B78037070BC704799
:101D3000F8B50400002500262068C00372D50027EE
:101D400044480068C0000FD442480068802149051B
:101D50000143404801603F48006880214905084030
:101D600000900098012007003B480068C00514D48B
:101D70003948006880214900014337480160FFF776
:101D8000F5FC050034480068C00506D4FFF7EEFCFA
:101D9000401B6528F6D303205BE030480068C02173
:101DA000890001400E00002E2AD06068C021890001
:101DB00001408E4224D029480068294901400E0084
:101DC00026480068802149020143244801602348D5
:101DD0000068244901402148016020480660F0075E
:101DE0000ED5FFF7C3FC05001C480068800707D428
:101DF000FFF7BCFC401B1C498842F5D3032028E0B8
:101E00001648006816490140606808431349086095
:101E10003800C0B2012805D10E48006813490140BE
:101E20000C4801602078C00707D5114800680321DD
:101E30008843A16801430E4801602078800607D5D9
:101E40000B48006810218843E1680143084801609D
:101E50000020F2BD1C100240007000402010024023
:101E6000FFFCFFFFFFFFFEFF89130000FFFFFFEFF6
:101E70003010024010B50400FA2080000E490978A5
:101E8000FFF71CFC01000D480068FFF717FCFFF787
:101E9000D3FE002801D001200CE0042C09D200223E
:101EA00021000020C043FFF7AFFE0548046000207A
:101EB00000E0012010BD00BF640000206000002091
:101EC0005C0000207047FEE781B00E4800680121E9
:101ED00001430C4801600B4800680100C907C90FA5
:101EE0000091009808480068802149050143064890
:101EF000016005480068802149050840009000986D
:101F000001B07047181002401C100240202A2A2AF3
:101F10002A554152545F54776F426F617264735F08
:101F2000436F6D49542A2A2A2A20202A2A2A2A5510
:101F30004152545F54776F426F617264735F436FB5
:101F40006D49542A2A2A2A20202A2A2A2A5541520F
:101F5000545F54776F426F617264735F436F6D4972
:101F6000542A2A2A2A2000000400000000127A00C5
:101F70000100000070B40123002413E00168001D7B
:101F8000194202D04D466D1E49190C60091D121FE1
:101F9000042AFAD20D00960701D50C80AD1C1A4018
:101FA00000D02C700268001D002AE7D170BC704779
:101FB000FEE70000704700B5FEE77047704780B548
:101FC00000F010F801BD80B50448FEF79BF901BD93
:101FD00080B50348FEF796F901BD000068000020B7
:101FE000E8000020034800680349097840180149C7
:101FF00008607047A40200206400002030B4012271
:102000000168001D00290FD00368C3184468083018
:10201000144202D04D466D1E64191D6825601B1DBB
:10202000241D091FECD0F8E730BC704710B50749F4
:1020300079441831064C7C44163404E0081D0A68C3
:10204000891888470100A142F8D110BD080000009E
:102050002800000021FFFFFF400200006800002070
:102060000000000099FFFFFF68000000A0FEFFFFD6
:10207000000000200000000000F00DF8002801D052
:10208000FFF7D4FF00BF00BF002000BF00BFFEF776
:102090001FFE00F002F80120704780B500F002F842
:1020A00001BDFEE70746384600F002F8FBE7FEE711
:1020B00080B500BF00BF024A11001820ABBEFBE78D
:1020C0002600020002030405060708090A0B0C0D8E
:1020D0000E0F10100102030405060708090A0B0C75
:1020E0000D0E0F10000000000000000001020304AC
:1020F0000607080901488047014800473D210008BC
:102100000521000800BF00BF00BF00BFFFF7B4FFFC
:102110000000000001020304FEE7FEE7FEE7FEE721
:10212000FEE7FEE7FEE7FEE7FEE7FEE7FEE7FEE787
:0E213000FEE7FEE7FEE7FEE7FEE7FEE770478C
:0400000508002105C9
:00000001FF
